{
  "_format": "hh-sol-artifact-1",
  "contractName": "MyMarket",
  "sourceName": "contracts/MyMarket.sol",
  "abi": [
    {
      "inputs": [],
      "stateMutability": "nonpayable",
      "type": "constructor"
    },
    {
      "inputs": [],
      "name": "ReentrancyGuardReentrantCall",
      "type": "error"
    },
    {
      "anonymous": false,
      "inputs": [
        {
          "indexed": true,
          "internalType": "uint256",
          "name": "id",
          "type": "uint256"
        },
        {
          "indexed": true,
          "internalType": "address",
          "name": "nftContract",
          "type": "address"
        },
        {
          "indexed": true,
          "internalType": "uint256",
          "name": "tokenId",
          "type": "uint256"
        },
        {
          "indexed": false,
          "internalType": "address",
          "name": "seller",
          "type": "address"
        },
        {
          "indexed": false,
          "internalType": "address",
          "name": "buyer",
          "type": "address"
        },
        {
          "indexed": false,
          "internalType": "uint256",
          "name": "price",
          "type": "uint256"
        },
        {
          "indexed": false,
          "internalType": "enum MyMarket.State",
          "name": "state",
          "type": "uint8"
        }
      ],
      "name": "MarketItemCreated",
      "type": "event"
    },
    {
      "anonymous": false,
      "inputs": [
        {
          "indexed": true,
          "internalType": "uint256",
          "name": "id",
          "type": "uint256"
        },
        {
          "indexed": true,
          "internalType": "address",
          "name": "nftContract",
          "type": "address"
        },
        {
          "indexed": true,
          "internalType": "uint256",
          "name": "tokenId",
          "type": "uint256"
        },
        {
          "indexed": false,
          "internalType": "address",
          "name": "seller",
          "type": "address"
        },
        {
          "indexed": false,
          "internalType": "address",
          "name": "buyer",
          "type": "address"
        },
        {
          "indexed": false,
          "internalType": "uint256",
          "name": "price",
          "type": "uint256"
        },
        {
          "indexed": false,
          "internalType": "enum MyMarket.State",
          "name": "state",
          "type": "uint8"
        }
      ],
      "name": "MarketItemSold",
      "type": "event"
    },
    {
      "inputs": [
        {
          "internalType": "address",
          "name": "nftContract",
          "type": "address"
        },
        {
          "internalType": "uint256",
          "name": "tokenId",
          "type": "uint256"
        },
        {
          "internalType": "uint256",
          "name": "price",
          "type": "uint256"
        }
      ],
      "name": "createMarketItem",
      "outputs": [],
      "stateMutability": "payable",
      "type": "function"
    },
    {
      "inputs": [
        {
          "internalType": "address",
          "name": "nftContract",
          "type": "address"
        },
        {
          "internalType": "uint256",
          "name": "id",
          "type": "uint256"
        }
      ],
      "name": "createMarketSale",
      "outputs": [],
      "stateMutability": "payable",
      "type": "function"
    },
    {
      "inputs": [
        {
          "internalType": "uint256",
          "name": "itemId",
          "type": "uint256"
        }
      ],
      "name": "deleteMarketItem",
      "outputs": [],
      "stateMutability": "nonpayable",
      "type": "function"
    },
    {
      "inputs": [],
      "name": "fetchActiveItems",
      "outputs": [
        {
          "components": [
            {
              "internalType": "uint256",
              "name": "id",
              "type": "uint256"
            },
            {
              "internalType": "address",
              "name": "nftContract",
              "type": "address"
            },
            {
              "internalType": "uint256",
              "name": "tokenId",
              "type": "uint256"
            },
            {
              "internalType": "address payable",
              "name": "seller",
              "type": "address"
            },
            {
              "internalType": "address payable",
              "name": "buyer",
              "type": "address"
            },
            {
              "internalType": "uint256",
              "name": "price",
              "type": "uint256"
            },
            {
              "internalType": "enum MyMarket.State",
              "name": "state",
              "type": "uint8"
            }
          ],
          "internalType": "struct MyMarket.MarketItem[]",
          "name": "",
          "type": "tuple[]"
        }
      ],
      "stateMutability": "view",
      "type": "function"
    },
    {
      "inputs": [],
      "name": "fetchMyCreatedItems",
      "outputs": [
        {
          "components": [
            {
              "internalType": "uint256",
              "name": "id",
              "type": "uint256"
            },
            {
              "internalType": "address",
              "name": "nftContract",
              "type": "address"
            },
            {
              "internalType": "uint256",
              "name": "tokenId",
              "type": "uint256"
            },
            {
              "internalType": "address payable",
              "name": "seller",
              "type": "address"
            },
            {
              "internalType": "address payable",
              "name": "buyer",
              "type": "address"
            },
            {
              "internalType": "uint256",
              "name": "price",
              "type": "uint256"
            },
            {
              "internalType": "enum MyMarket.State",
              "name": "state",
              "type": "uint8"
            }
          ],
          "internalType": "struct MyMarket.MarketItem[]",
          "name": "",
          "type": "tuple[]"
        }
      ],
      "stateMutability": "view",
      "type": "function"
    },
    {
      "inputs": [],
      "name": "fetchMyPurchasedItems",
      "outputs": [
        {
          "components": [
            {
              "internalType": "uint256",
              "name": "id",
              "type": "uint256"
            },
            {
              "internalType": "address",
              "name": "nftContract",
              "type": "address"
            },
            {
              "internalType": "uint256",
              "name": "tokenId",
              "type": "uint256"
            },
            {
              "internalType": "address payable",
              "name": "seller",
              "type": "address"
            },
            {
              "internalType": "address payable",
              "name": "buyer",
              "type": "address"
            },
            {
              "internalType": "uint256",
              "name": "price",
              "type": "uint256"
            },
            {
              "internalType": "enum MyMarket.State",
              "name": "state",
              "type": "uint8"
            }
          ],
          "internalType": "struct MyMarket.MarketItem[]",
          "name": "",
          "type": "tuple[]"
        }
      ],
      "stateMutability": "view",
      "type": "function"
    },
    {
      "inputs": [],
      "name": "fetchMySoldItems",
      "outputs": [
        {
          "components": [
            {
              "internalType": "uint256",
              "name": "id",
              "type": "uint256"
            },
            {
              "internalType": "address",
              "name": "nftContract",
              "type": "address"
            },
            {
              "internalType": "uint256",
              "name": "tokenId",
              "type": "uint256"
            },
            {
              "internalType": "address payable",
              "name": "seller",
              "type": "address"
            },
            {
              "internalType": "address payable",
              "name": "buyer",
              "type": "address"
            },
            {
              "internalType": "uint256",
              "name": "price",
              "type": "uint256"
            },
            {
              "internalType": "enum MyMarket.State",
              "name": "state",
              "type": "uint8"
            }
          ],
          "internalType": "struct MyMarket.MarketItem[]",
          "name": "",
          "type": "tuple[]"
        }
      ],
      "stateMutability": "view",
      "type": "function"
    },
    {
      "inputs": [],
      "name": "getListingFee",
      "outputs": [
        {
          "internalType": "uint256",
          "name": "",
          "type": "uint256"
        }
      ],
      "stateMutability": "view",
      "type": "function"
    },
    {
      "inputs": [],
      "name": "listingFee",
      "outputs": [
        {
          "internalType": "uint256",
          "name": "",
          "type": "uint256"
        }
      ],
      "stateMutability": "view",
      "type": "function"
    },
    {
      "inputs": [],
      "name": "marketowner",
      "outputs": [
        {
          "internalType": "address payable",
          "name": "",
          "type": "address"
        }
      ],
      "stateMutability": "view",
      "type": "function"
    }
  ],
  "bytecode": "0x6080604052600060015566038d7ea4c6800060045534801561002057600080fd5b50600160008190555033600360006101000a81548173ffffffffffffffffffffffffffffffffffffffff021916908373ffffffffffffffffffffffffffffffffffffffff1602179055506121f5806100796000396000f3fe6080604052600436106100915760003560e01c8063a9c0714511610059578063a9c071451461015e578063ab76ce1614610187578063b8fe6abe146101b2578063c23b139e146101dd578063ef8da9da146101f957610091565b8063332b386b1461009657806358eb2df5146100c15780635e385b92146100dd5780636a1b7ecc146101085780636eff94d514610133575b600080fd5b3480156100a257600080fd5b506100ab610224565b6040516100b89190611a52565b60405180910390f35b6100db60048036038101906100d69190611ad1565b610235565b005b3480156100e957600080fd5b506100f261066b565b6040516100ff9190611b33565b60405180910390f35b34801561011457600080fd5b5061011d610691565b60405161012a9190611b5d565b60405180910390f35b34801561013f57600080fd5b50610148610697565b6040516101559190611a52565b60405180910390f35b34801561016a57600080fd5b5061018560048036038101906101809190611b78565b6106a8565b005b34801561019357600080fd5b5061019c610a91565b6040516101a99190611a52565b60405180910390f35b3480156101be57600080fd5b506101c7610aa2565b6040516101d49190611b5d565b60405180910390f35b6101f760048036038101906101f29190611ba5565b610aac565b005b34801561020557600080fd5b5061020e610e81565b60405161021b9190611a52565b60405180910390f35b60606102306000610e92565b905090565b61023d611408565b60008111610280576040517f08c379a000000000000000000000000000000000000000000000000000000000815260040161027790611c42565b60405180910390fd5b60045434146102c4576040517f08c379a00000000000000000000000000000000000000000000000000000000081526004016102bb90611cae565b60405180910390fd5b3073ffffffffffffffffffffffffffffffffffffffff168373ffffffffffffffffffffffffffffffffffffffff1663081812fc846040518263ffffffff1660e01b81526004016103149190611b5d565b602060405180830381865afa158015610331573d6000803e3d6000fd5b505050506040513d601f19601f820116820180604052508101906103559190611ce3565b73ffffffffffffffffffffffffffffffffffffffff16146103ab576040517f08c379a00000000000000000000000000000000000000000000000000000000081526004016103a290611d5c565b60405180910390fd5b60006001600081546103bc90611dab565b919050819055905060008473ffffffffffffffffffffffffffffffffffffffff16636352211e856040518263ffffffff1660e01b81526004016103ff9190611b5d565b602060405180830381865afa15801561041c573d6000803e3d6000fd5b505050506040513d601f19601f820116820180604052508101906104409190611ce3565b90506040518060e001604052808381526020018673ffffffffffffffffffffffffffffffffffffffff1681526020018581526020018273ffffffffffffffffffffffffffffffffffffffff168152602001600073ffffffffffffffffffffffffffffffffffffffff168152602001848152602001600060028111156104c8576104c76118ca565b5b815250600560008681526020019081526020016000206000820151816000015560208201518160010160006101000a81548173ffffffffffffffffffffffffffffffffffffffff021916908373ffffffffffffffffffffffffffffffffffffffff1602179055506040820151816002015560608201518160030160006101000a81548173ffffffffffffffffffffffffffffffffffffffff021916908373ffffffffffffffffffffffffffffffffffffffff16021790555060808201518160040160006101000a81548173ffffffffffffffffffffffffffffffffffffffff021916908373ffffffffffffffffffffffffffffffffffffffff16021790555060a0820151816005015560c08201518160060160006101000a81548160ff021916908360028111156105fc576105fb6118ca565b5b0217905550905050838573ffffffffffffffffffffffffffffffffffffffff16837fb0a8dcfc08f1150d20def3c46440be585f61cce1bdbb0fdf16bc597f471c6e703360008860006040516106549493929190611e11565b60405180910390a4505061066661144e565b505050565b600360009054906101000a900473ffffffffffffffffffffffffffffffffffffffff1681565b60045481565b60606106a36003610e92565b905090565b6106b0611408565b6001548111156106f5576040517f08c379a00000000000000000000000000000000000000000000000000000000081526004016106ec90611ea2565b60405180910390fd5b60006002811115610709576107086118ca565b5b6005600083815260200190815260200160002060060160009054906101000a900460ff16600281111561073f5761073e6118ca565b5b1461077f576040517f08c379a000000000000000000000000000000000000000000000000000000000815260040161077690611f0e565b60405180910390fd5b60006005600083815260200190815260200160002090503373ffffffffffffffffffffffffffffffffffffffff168160010160009054906101000a900473ffffffffffffffffffffffffffffffffffffffff1673ffffffffffffffffffffffffffffffffffffffff16636352211e83600201546040518263ffffffff1660e01b815260040161080e9190611b5d565b602060405180830381865afa15801561082b573d6000803e3d6000fd5b505050506040513d601f19601f8201168201806040525081019061084f9190611ce3565b73ffffffffffffffffffffffffffffffffffffffff16146108a5576040517f08c379a000000000000000000000000000000000000000000000000000000000815260040161089c90611f7a565b60405180910390fd5b3073ffffffffffffffffffffffffffffffffffffffff168160010160009054906101000a900473ffffffffffffffffffffffffffffffffffffffff1673ffffffffffffffffffffffffffffffffffffffff1663081812fc83600201546040518263ffffffff1660e01b815260040161091d9190611b5d565b602060405180830381865afa15801561093a573d6000803e3d6000fd5b505050506040513d601f19601f8201168201806040525081019061095e9190611ce3565b73ffffffffffffffffffffffffffffffffffffffff16146109b4576040517f08c379a00000000000000000000000000000000000000000000000000000000081526004016109ab90611d5c565b60405180910390fd5b60028160060160006101000a81548160ff021916908360028111156109dc576109db6118ca565b5b021790555080600201548160010160009054906101000a900473ffffffffffffffffffffffffffffffffffffffff1673ffffffffffffffffffffffffffffffffffffffff16837f064a9702da2c4a0a9af4cabda06e4715203ed7b0b3bb67eca6d3168e1c519bff8460030160009054906101000a900473ffffffffffffffffffffffffffffffffffffffff166000806002604051610a7d9493929190612034565b60405180910390a450610a8e61144e565b50565b6060610a9d6001610e92565b905090565b6000600454905090565b610ab4611408565b6000600560008381526020019081526020016000209050600081600501549050600082600201549050813414610b1f576040517f08c379a0000000000000000000000000000000000000000000000000000000008152600401610b16906120c5565b60405180910390fd5b3073ffffffffffffffffffffffffffffffffffffffff168573ffffffffffffffffffffffffffffffffffffffff1663081812fc836040518263ffffffff1660e01b8152600401610b6f9190611b5d565b602060405180830381865afa158015610b8c573d6000803e3d6000fd5b505050506040513d601f19601f82011682018060405250810190610bb09190611ce3565b73ffffffffffffffffffffffffffffffffffffffff1614610c06576040517f08c379a0000000000000000000000000000000000000000000000000000000008152600401610bfd90611d5c565b60405180910390fd5b338360040160006101000a81548173ffffffffffffffffffffffffffffffffffffffff021916908373ffffffffffffffffffffffffffffffffffffffff16021790555060018360060160006101000a81548160ff02191690836002811115610c7157610c706118ca565b5b021790555060026000815480929190610c8990611dab565b91905055508473ffffffffffffffffffffffffffffffffffffffff166323b872dd8460030160009054906101000a900473ffffffffffffffffffffffffffffffffffffffff1633846040518463ffffffff1660e01b8152600401610cef939291906120e5565b600060405180830381600087803b158015610d0957600080fd5b505af1158015610d1d573d6000803e3d6000fd5b50505050600360009054906101000a900473ffffffffffffffffffffffffffffffffffffffff1673ffffffffffffffffffffffffffffffffffffffff166108fc6004549081150290604051600060405180830381858888f19350505050158015610d8b573d6000803e3d6000fd5b508260030160009054906101000a900473ffffffffffffffffffffffffffffffffffffffff1673ffffffffffffffffffffffffffffffffffffffff166108fc349081150290604051600060405180830381858888f19350505050158015610df6573d6000803e3d6000fd5b50808573ffffffffffffffffffffffffffffffffffffffff16857f064a9702da2c4a0a9af4cabda06e4715203ed7b0b3bb67eca6d3168e1c519bff8660030160009054906101000a900473ffffffffffffffffffffffffffffffffffffffff1633876001604051610e6a949392919061211c565b60405180910390a4505050610e7d61144e565b5050565b6060610e8d6002610e92565b905090565b606060006001549050600080600190505b8281116110535761102c600560008381526020019081526020016000206040518060e0016040529081600082015481526020016001820160009054906101000a900473ffffffffffffffffffffffffffffffffffffffff1673ffffffffffffffffffffffffffffffffffffffff1673ffffffffffffffffffffffffffffffffffffffff168152602001600282015481526020016003820160009054906101000a900473ffffffffffffffffffffffffffffffffffffffff1673ffffffffffffffffffffffffffffffffffffffff1673ffffffffffffffffffffffffffffffffffffffff1681526020016004820160009054906101000a900473ffffffffffffffffffffffffffffffffffffffff1673ffffffffffffffffffffffffffffffffffffffff1673ffffffffffffffffffffffffffffffffffffffff168152602001600582015481526020016006820160009054906101000a900460ff1660028111156110105761100f6118ca565b5b6002811115611022576110216118ca565b5b8152505086611458565b1561104057818061103c90611dab565b9250505b808061104b90611dab565b915050610ea3565b506000808267ffffffffffffffff81111561107157611070612161565b5b6040519080825280602002602001820160405280156110aa57816020015b611097611792565b81526020019060019003908161108f5790505b5090506000600190505b8481116113fb5761123d600560008381526020019081526020016000206040518060e0016040529081600082015481526020016001820160009054906101000a900473ffffffffffffffffffffffffffffffffffffffff1673ffffffffffffffffffffffffffffffffffffffff1673ffffffffffffffffffffffffffffffffffffffff168152602001600282015481526020016003820160009054906101000a900473ffffffffffffffffffffffffffffffffffffffff1673ffffffffffffffffffffffffffffffffffffffff1673ffffffffffffffffffffffffffffffffffffffff1681526020016004820160009054906101000a900473ffffffffffffffffffffffffffffffffffffffff1673ffffffffffffffffffffffffffffffffffffffff1673ffffffffffffffffffffffffffffffffffffffff168152602001600582015481526020016006820160009054906101000a900460ff166002811115611221576112206118ca565b5b6002811115611233576112326118ca565b5b8152505088611458565b156113e857600560008281526020019081526020016000206040518060e0016040529081600082015481526020016001820160009054906101000a900473ffffffffffffffffffffffffffffffffffffffff1673ffffffffffffffffffffffffffffffffffffffff1673ffffffffffffffffffffffffffffffffffffffff168152602001600282015481526020016003820160009054906101000a900473ffffffffffffffffffffffffffffffffffffffff1673ffffffffffffffffffffffffffffffffffffffff1673ffffffffffffffffffffffffffffffffffffffff1681526020016004820160009054906101000a900473ffffffffffffffffffffffffffffffffffffffff1673ffffffffffffffffffffffffffffffffffffffff1673ffffffffffffffffffffffffffffffffffffffff168152602001600582015481526020016006820160009054906101000a900460ff1660028111156113a5576113a46118ca565b5b60028111156113b7576113b66118ca565b5b815250508284815181106113ce576113cd612190565b5b602002602001018190525082806113e490611dab565b9350505b80806113f390611dab565b9150506110b4565b5080945050505050919050565b600260005403611444576040517f3ee5aeb500000000000000000000000000000000000000000000000000000000815260040160405180910390fd5b6002600081905550565b6001600081905550565b60006002600381111561146e5761146d6118ca565b5b826003811115611481576114806118ca565b5b03611502573373ffffffffffffffffffffffffffffffffffffffff16836060015173ffffffffffffffffffffffffffffffffffffffff161480156114ed57506002808111156114d3576114d26118ca565b5b8360c0015160028111156114ea576114e96118ca565b5b14155b6114f85760006114fb565b60015b905061178c565b60016003811115611516576115156118ca565b5b826003811115611529576115286118ca565b5b03611576573373ffffffffffffffffffffffffffffffffffffffff16836080015173ffffffffffffffffffffffffffffffffffffffff161461156c57600061156f565b60015b905061178c565b6000600381111561158a576115896118ca565b5b82600381111561159d5761159c6118ca565b5b036116d757600073ffffffffffffffffffffffffffffffffffffffff16836080015173ffffffffffffffffffffffffffffffffffffffff1614801561160a5750600060028111156115f1576115f06118ca565b5b8360c001516002811115611608576116076118ca565b5b145b80156116c257503073ffffffffffffffffffffffffffffffffffffffff16836020015173ffffffffffffffffffffffffffffffffffffffff1663081812fc85604001516040518263ffffffff1660e01b81526004016116699190611b5d565b602060405180830381865afa158015611686573d6000803e3d6000fd5b505050506040513d601f19601f820116820180604052508101906116aa9190611ce3565b73ffffffffffffffffffffffffffffffffffffffff16145b6116cd5760006116d0565b60015b905061178c565b6003808111156116ea576116e96118ca565b5b8260038111156116fd576116fc6118ca565b5b03611787573373ffffffffffffffffffffffffffffffffffffffff16836060015173ffffffffffffffffffffffffffffffffffffffff161480156117725750600073ffffffffffffffffffffffffffffffffffffffff16836080015173ffffffffffffffffffffffffffffffffffffffff1614155b61177d576000611780565b60015b905061178c565b600090505b92915050565b6040518060e0016040528060008152602001600073ffffffffffffffffffffffffffffffffffffffff16815260200160008152602001600073ffffffffffffffffffffffffffffffffffffffff168152602001600073ffffffffffffffffffffffffffffffffffffffff168152602001600081526020016000600281111561181d5761181c6118ca565b5b81525090565b600081519050919050565b600082825260208201905092915050565b6000819050602082019050919050565b6000819050919050565b6118628161184f565b82525050565b600073ffffffffffffffffffffffffffffffffffffffff82169050919050565b600061189382611868565b9050919050565b6118a381611888565b82525050565b60006118b482611868565b9050919050565b6118c4816118a9565b82525050565b7f4e487b7100000000000000000000000000000000000000000000000000000000600052602160045260246000fd5b6003811061190a576119096118ca565b5b50565b600081905061191b826118f9565b919050565b600061192b8261190d565b9050919050565b61193b81611920565b82525050565b60e0820160008201516119576000850182611859565b50602082015161196a602085018261189a565b50604082015161197d6040850182611859565b50606082015161199060608501826118bb565b5060808201516119a360808501826118bb565b5060a08201516119b660a0850182611859565b5060c08201516119c960c0850182611932565b50505050565b60006119db8383611941565b60e08301905092915050565b6000602082019050919050565b60006119ff82611823565b611a09818561182e565b9350611a148361183f565b8060005b83811015611a45578151611a2c88826119cf565b9750611a37836119e7565b925050600181019050611a18565b5085935050505092915050565b60006020820190508181036000830152611a6c81846119f4565b905092915050565b600080fd5b611a8281611888565b8114611a8d57600080fd5b50565b600081359050611a9f81611a79565b92915050565b611aae8161184f565b8114611ab957600080fd5b50565b600081359050611acb81611aa5565b92915050565b600080600060608486031215611aea57611ae9611a74565b5b6000611af886828701611a90565b9350506020611b0986828701611abc565b9250506040611b1a86828701611abc565b9150509250925092565b611b2d816118a9565b82525050565b6000602082019050611b486000830184611b24565b92915050565b611b578161184f565b82525050565b6000602082019050611b726000830184611b4e565b92915050565b600060208284031215611b8e57611b8d611a74565b5b6000611b9c84828501611abc565b91505092915050565b60008060408385031215611bbc57611bbb611a74565b5b6000611bca85828601611a90565b9250506020611bdb85828601611abc565b9150509250929050565b600082825260208201905092915050565b7f5072696365206d757374206265206174206c6561737420312077656900000000600082015250565b6000611c2c601c83611be5565b9150611c3782611bf6565b602082019050919050565b60006020820190508181036000830152611c5b81611c1f565b9050919050565b7f466565206d75737420626520657175616c20746f206c697374696e6720666565600082015250565b6000611c98602083611be5565b9150611ca382611c62565b602082019050919050565b60006020820190508181036000830152611cc781611c8b565b9050919050565b600081519050611cdd81611a79565b92915050565b600060208284031215611cf957611cf8611a74565b5b6000611d0784828501611cce565b91505092915050565b7f4e4654206d75737420626520617070726f76656420746f206d61726b65740000600082015250565b6000611d46601e83611be5565b9150611d5182611d10565b602082019050919050565b60006020820190508181036000830152611d7581611d39565b9050919050565b7f4e487b7100000000000000000000000000000000000000000000000000000000600052601160045260246000fd5b6000611db68261184f565b91507fffffffffffffffffffffffffffffffffffffffffffffffffffffffffffffffff8203611de857611de7611d7c565b5b600182019050919050565b611dfc81611888565b82525050565b611e0b81611920565b82525050565b6000608082019050611e266000830187611df3565b611e336020830186611df3565b611e406040830185611b4e565b611e4d6060830184611e02565b95945050505050565b7f6964206d757374203c3d206974656d20636f756e740000000000000000000000600082015250565b6000611e8c601583611be5565b9150611e9782611e56565b602082019050919050565b60006020820190508181036000830152611ebb81611e7f565b9050919050565b7f6974656d206d757374206265206f6e206d61726b657400000000000000000000600082015250565b6000611ef8601683611be5565b9150611f0382611ec2565b602082019050919050565b60006020820190508181036000830152611f2781611eeb565b9050919050565b7f6d75737420626520746865206f776e6572000000000000000000000000000000600082015250565b6000611f64601183611be5565b9150611f6f82611f2e565b602082019050919050565b60006020820190508181036000830152611f9381611f57565b9050919050565b6000819050919050565b6000611fbf611fba611fb584611868565b611f9a565b611868565b9050919050565b6000611fd182611fa4565b9050919050565b6000611fe382611fc6565b9050919050565b611ff381611fd8565b82525050565b6000819050919050565b600061201e61201961201484611ff9565b611f9a565b61184f565b9050919050565b61202e81612003565b82525050565b60006080820190506120496000830187611fea565b6120566020830186611df3565b6120636040830185612025565b6120706060830184611e02565b95945050505050565b7f506c65617365207375626d6974207468652061736b696e672070726963650000600082015250565b60006120af601e83611be5565b91506120ba82612079565b602082019050919050565b600060208201905081810360008301526120de816120a2565b9050919050565b60006060820190506120fa6000830186611fea565b6121076020830185611df3565b6121146040830184611b4e565b949350505050565b60006080820190506121316000830187611fea565b61213e6020830186611df3565b61214b6040830185611b4e565b6121586060830184611e02565b95945050505050565b7f4e487b7100000000000000000000000000000000000000000000000000000000600052604160045260246000fd5b7f4e487b7100000000000000000000000000000000000000000000000000000000600052603260045260246000fdfea264697066735822122057079f11545a425094cf16d0cd52c6312672caf844ca504e53f58a2f35aa5f3064736f6c63430008180033",
  "linkReferences": {},
  "deployedLinkReferences": {}
}